:100000000C9434000C948A0B0C9451000C94510005
:100010000C9451000C9451000C9451000C9451001C
:100020000C9451000C9451000C9451000C94840ACF
:100030000C9451000C9451000C9478090C945100CC
:100040000C9451000C9451000C9451000C945100EC
:100050000C9451000C9451000C9451000C945100DC
:100060000C9451000C94510011241FBECFEFD4E02A
:10007000DEBFCDBF12E0A0E0B1E0EAE9FEE102C0E0
:1000800005900D92A635B107D9F724E0A6E5B2E0B8
:1000900001C01D92AB36B207E1F70E94E30C0C944D
:1000A0004B0F0C94000088E78093BB0084E880939A
:1000B000BC008091BC0087FFFCCF80E48093BB0034
:1000C00084E88093BC008091BC0087FFFCCF08953A
:1000D00094EA9093BC009091BC0097FFFCCF909164
:1000E000B900987F983021F084E98093BC0008958E
:1000F00098E79093BB0094E89093BC009091BC006B
:1001000097FFFCCF90E89093BB0094E89093BC00DD
:100110009091BC0097FFFCCF8093BB0084E8809354
:10012000BC008091BC0087FFFCCFDECFCF93DF9374
:1001300090E00296EC01CF70DD27C093560224E0D8
:10014000959587952A95E1F7805F0E9468008C2F2E
:10015000DF91CF910C94680080550C9468000F9348
:100160001F93CF93DF9394EA9093BC009091BC00CF
:1001700097FFFCCF9091B900987F983021F084EAE6
:100180008093BC001EC090EA9093BB0094E89093CB
:10019000BC009091BC0097FFFCCF880F8093BB0000
:1001A00084E88093BC008091BC0087FFFCCF109254
:1001B000BB0084E88093BC008091BC0087FFFCCF2B
:1001C000DECF8091BC0087FFFCCF8091B900887F93
:1001D000803161F084E98093BC0010926A0410922F
:1001E000690414EAC4E604E8D4E93FC081EA8093D4
:1001F000BB0084E88093BC008091BC0087FFFCCFEB
:1002000010924C0410924B0434EC80914B0490916A
:100210004C04843F9140B0F43093BC008091BC000A
:1002200087FFFCCF80914B0490914C042091BB0040
:10023000FC01E95AFD4F2083019690934C04809372
:100240004B04E3CF84E88093BC008091BC0087FF1F
:10025000FCCFC0CFD093BC008091690490916A0418
:10026000019690936A048093690480916904909147
:100270006A048530910508F044C00E94AC008FE00C
:100280000E9496001093BC008091BC0087FFFCCFB9
:100290008091B900887F8830E9F60E945300209150
:1002A000690430916A04C29FC001C39F900D11245C
:1002B00090934C0480934B0480914B0490914C0498
:1002C0002091690430916A042F5F3F4FC29FA001C3
:1002D000C39F500D11248417950708F0BBCFFC0174
:1002E000E95AFD4F80818093BB000093BC00809150
:1002F000BC0087FFFCCF80914B0490914C04019689
:10030000D7CFDF91CF911F910F910895DF92EF9298
:10031000FF920F931F93CF93DF93F82E10926A04EE
:100320001092690484EAE82E1BE086E1869FE001D2
:10033000879FD00D1124C758DE4F94E8D92E04E9C9
:100340008091690490916A048230910508F050C050
:100350008A5F0E94AC008F2D0E949600E092BC0044
:100360008091BC0087FFFCCF8091B900887F8830E6
:1003700099F50E9453002091690430916A04129FFC
:10038000C001139F900D112490934C0480934B0453
:1003900080914B0490914C042091690430916A043F
:1003A0002F5F3F4F129FA001139F500D1124841700
:1003B000950790F4FE01E80FF91F80818093BB0040
:1003C000D092BC008091BC0087FFFCCF80914B0491
:1003D00090914C040196D8CF0093BC0080916904A1
:1003E00090916A04019690936A0480936904A8CF5F
:1003F000DF91CF911F910F91FF90EF90DF900895C3
:1004000094EA9093BC009091BC0097FFFCCF909130
:10041000B900987F983021F084E98093BC0008955A
:100420009AE69093BB0094E89093BC009091BC0036
:1004300097FFFCCF8093BB0084E88093BC00809141
:10044000BC0087FFFCCF6093BB0084E88093BC00B6
:100450008091BC0087FFFCCF4093BB0084E8809371
:10046000BC008091BC0087FFFCCFD6CF60914D04CB
:10047000605440E884E00E94000240E068E88FE0B9
:100480000E94000242E860E086E10E94000240EC27
:100490006FEA82E20E94000241E064E183E30C948F
:1004A0000002CF9394EA9093BC009091BC0097FF18
:1004B000FCCF9091B900987F983061F5C82F0E94C9
:1004C000530010924C0410924B042AE0C29FC001CA
:1004D00011248B5F9E4F44E820914B0430914C04D3
:1004E0002A303105B8F4FC01E20FF31F208120937C
:1004F000BB004093BC002091BC0027FFFCCF2091A3
:100500004B0430914C042F5F3F4F30934C042093A9
:100510004B04E2CF84E98093BC008FE99FE0019710
:10052000F1F700C00000CF910895CF93DF9394EAD4
:100530009093BC009091BC0097FFFCCF9091B900C4
:10054000987F983029F5D62FC82F0E94530010921B
:100550004C0410924B048C2F90E044E820914B0403
:1005600030914C042817390798F4D093BB0040937E
:10057000BC002091BC0027FFFCCF20914B043091A0
:100580004C042F5F3F4F30934C0420934B04E6CF35
:1005900084E98093BC008FE891E00197F1F700C0F7
:1005A0000000DF91CF910895EF92FF920F931F9378
:1005B000CF93DF938091650442E0882309F47FC0E4
:1005C00060E886E10E940002C0910301D09104011D
:1005D000C11523E0D20728F44C2F62E887E10E947E
:1005E0000002CE0193508F3F910509F028F44C2F63
:1005F00063E887E10E940002CE0194508F3F91058D
:1006000009F028F44C2F64E887E10E940002CE0133
:1006100095508F3F910509F018F44C2F65E806C0FE
:10062000C11586E0D80730F04C2F66E887E10E94BC
:10063000000204C0C83E23E0D20748F0CE0168EEB5
:1006400073E00E94370F89E20E94860114C086EB96
:100650000E9468008BE20E94960060E086E00E94A3
:10066000950287EB0E9468008EE20E94960060E08F
:1006700083E00E949502C0910301D0910401CE0154
:1006800068EE73E00E94370F04E610E0B8010E94A4
:10069000370F86E30E948601CE01B8010E94370F12
:1006A0000AE010E0B8010E94370F84E40E9486013E
:1006B000CE01B8010E94370FBC0182E53DC060E069
:1006C00086E10E940002C0910101D0910201CF3F5A
:1006D000D10528F44C2F65E883E00E940002CE018A
:1006E0009A958F3F910518F44C2F66E806C0C11506
:1006F00082E0D80728F04C2F67E883E00E940002D0
:10070000D695C795C058DD4FCE0164E670E00E94D3
:10071000370F7C018DE20E9486010AE010E0C701DC
:10072000B8010E94370F8BE30E948601CE01B80109
:100730000E94370FBC018FE40E94860180EA9FE08F
:100740009093850080938400809165048823F1F163
:1007500080910301909104018A3922E0920789F087
:1007600030F48E32924099F489E090E070C08C337E
:1007700023E0920749F08737944049F48CE090E0F9
:1007800066C08AE090E063C08BE090E060C01092A9
:100790006A04109269048091690490916A0485301A
:1007A000910508F07AC00E94AC008FE00E9496008C
:1007B00060E084E60E9495028091690490916A0449
:1007C000019690936A0480936904E5CF80910101BA
:1007D000909102018C3F21E0920789F1A8F48434C2
:1007E00021E0920731F130F48A3F9105C1F580E0B4
:1007F00090E02DC0863A21E09207F1F0823E9140D0
:1008000071F583E090E023C0843122E09207D1F0BB
:1008100030F48630924019F585E090E018C08E32B1
:1008200022E0920791F08A349240C9F488E090E087
:100830000EC081E090E00BC082E090E008C084E050
:1008400090E005C086E090E002C087E090E0DF9194
:10085000CF911F910F91FF90EF900C94AF001092E9
:100860006A04109269048091690490916A04853049
:10087000910598F40E94AC008FE00E94960060E021
:1008800084E60E9495028091690490916A04019621
:1008900090936A0480936904E6CFDF91CF911F9112
:1008A0000F91FF90EF90089580916504882399F14E
:1008B00086EB0E94680085E10E94960060E082E17C
:1008C0000E94950286E10E94960060EC82E00E9400
:1008D00095028DE10E94960060EC82E00E949502F4
:1008E00084E20E94960060EC82E00E94950287EB11
:1008F0000E9468008EE50E94960060E083E00E94FE
:10090000950286E20E94960060E081E00E949502D6
:1009100080E593EC32C086EB0E9468008DE10E9476
:10092000960060E088E00E94950285E10E949600B2
:1009300060EC87E00E9495028EE10E94960060ECD8
:1009400082E00E94950285E20E94960060EC82E0BF
:100950000E94950287EB0E94680083E10E94960046
:1009600060E082E00E9495028CE60E94960060E0C2
:1009700082E00E94950280E197E290938900809343
:10098000880087EB0E94680080916504882311F03D
:1009900083E101C085E10E94960084EA8093BC0057
:1009A0008091BC0087FFFCCF8091B900887F8830A0
:1009B00059F50E94530010924C0410924B0423E10D
:1009C00034E880914B0490914C0483319105E0F41C
:1009D00040916504249F800D911D1124FC01ED5A66
:1009E000FE4F80818093BB003093BC008091BC009F
:1009F00087FFFCCF80914B0490914C04019690931B
:100A00004C0480934B04DDCF84E98093BC008FE8D5
:100A100091E00197F1F700C0000080916504882300
:100A200011F081E601C08EE50E94960084EA809371
:100A3000BC008091BC0087FFFCCF8091B900887F0B
:100A4000883059F50E94530010924C0410924B04C8
:100A50002EE034E880914B0490914C048E30910547
:100A6000E0F440916504249F800D911D1124FC0148
:100A7000E95CFE4F80818093BB003093BC00809185
:100A8000BC0087FFFCCF80914B0490914C040196F1
:100A900090934C0480934B04DDCF84E98093BC0099
:100AA0008FE891E00197F1F700C000000895CF931F
:100AB00080916704909168048D3522EA920781F451
:100AC0002091540430915504232B51F430910001AE
:100AD00021E0232720930001109266041092640401
:100AE00020910001222309F43BC38D3A22E59207AD
:100AF00009F423C320F58F3C20E3920709F490C248
:100B000078F48F3E20E1920709F4C9C2873E28E1BC
:100B1000920709F49AC28D3F924009F021C3A3C005
:100B20008D3B22E4920709F4EEC2853B2AE492074A
:100B300009F4F6C2873C984309F012C3C9C287354D
:100B400028EA920709F4FBC078F485382AE792076F
:100B500009F490C28F3620E9920709F481C1853AE1
:100B60009A4509F0FDC2C2C28D3322EC920709F406
:100B7000B2C020F48F34904B59F0F2C28F3120EE86
:100B8000920709F455C08D31924E09F4DDC1E8C2D7
:100B90008091540490915504892B09F0E1C2909101
:100BA000650481E089278093650486EB0E946800D4
:100BB0008BE20E94960060E082E30E94950287EB40
:100BC0000E9468008BE20E94960060E082E30E942F
:100BD000950210926A0410926904809169049091C0
:100BE0006A048730910598F40E94AC0081E00E946D
:100BF000960060E08AE00E949502809169049091DD
:100C00006A04019690936A0480936904E6CF809108
:100C1000650481110AC087EB0E94680089E40E9484
:100C2000960060EE83E00E9495020E94540495C2F3
:100C300080914D048F5F843018F480934D0402C07E
:100C400010924D0460914D04605240E884E00E948F
:100C500000028FEF99E628E1815090402040E1F7B3
:100C600000C000007DC28091540480FD25C08091A9
:100C7000010190910201813F910558F02091650496
:100C8000211107C0029790930201809301010E94F5
:100C9000D4028091030190910401843122E09207F3
:100CA00058F020916504222339F0099790930401AC
:100CB000809303010E94D4028091540490915504C2
:100CC000049720F081E0809366044AC21092660483
:100CD0001092640445C28091540480FD26C0809126
:100CE000010190910201803822E0920758F420918E
:100CF0006504211107C002969093020180930101BF
:100D00000E94D4028091030190910401823426E074
:100D1000920758F420916504222339F009969093A4
:100D20000401809303010E94D402809154049091A5
:100D30005504049758F281E08093640411C28091B5
:100D40005B048823A9F187EB0E94680086E70E9474
:100D5000960083E00E94510210926A041092690486
:100D60008091630490E02091690430916A0428170F
:100D70003907D8F42A988FE795EB21E0815090400D
:100D80002040E1F700C000002A9A8FE19EE401971D
:100D9000F1F700C000008091690490916A04019607
:100DA00090936A0480936904DBCF10925B04D8C1EE
:100DB0002998C0916304CC2309F447C0C150C09363
:100DC00063042C2F30E0C901019797FD0396959598
:100DD0008795959587959195819591098A5F0E9450
:100DE000AC0089E70E949600C11104C086EB0E9406
:100DF000680017C0C370D1F46FEF84E00E949502C1
:100E00002091630430E0C901019797FD0396959501
:100E10008795959587959195819591098B5F0E940E
:100E2000AC0089E70E94960060E00CC084E090E08E
:100E30008C1B9109880F991F6FEF70E001C0660F3E
:100E40008A95EAF784E00E9495029FE725EB81E00E
:100E5000915020408040E1F700C00000299A80C1F5
:100E600080916304873108F07BC190915B049923E2
:100E700099F187EB0E94680086E70E94960083E064
:100E80000E94510210926A041092690480916304D6
:100E900090E02091690430916A042817390708F01E
:100EA00084CF2A989FE725EB81E091502040804035
:100EB000E1F700C000002A9A8FE19EE40197F1F764
:100EC00000C000008091690490916A04019690939B
:100ED0006A0480936904DACF8F5F809363042A9851
:100EE000C09163042C2F30E021503109C90137FD36
:100EF00003969595879595958795919581959109F7
:100F00008A5F0E94AC0089E70E949600C37011F4CA
:100F10006FEF0CC084E090E08C1B9109880F991F43
:100F20006FEF70E001C0660F8A95EAF784E00E94D7
:100F300095029FE725EB81E0915020408040E1F74A
:100F400000C000002A9A0CC180915404909155046D
:100F5000892B09F005C190915B0481E0892780937A
:100F60005B04882351F110926A0410926904809105
:100F7000630490E02091690430916A0428173907CE
:100F800008F0EEC029989FE725EB81E091502040C2
:100F90008040E1F700C00000299A8FE19EE40197AC
:100FA000F1F700C000008091690490916A040196F5
:100FB00090936A0480936904DACF87EB0E946800FB
:100FC00086E70E94960083E00E94510210926A0414
:100FD000109269048091630490E02091690430913B
:100FE0006A042817390708F0BBC02A989FE725EB49
:100FF00081E0915020408040E1F700C000002A9A33
:101000008FE19EE40197F1F700C000008091690430
:1010100090916A04019690936A0480936904DACFF0
:101020008091540490915504892B09F099C0109235
:1010300066041092640480916504882319F08EE29E
:1010400092E03EC08AEF90E084C080915404909179
:101050005504892B09F084C0109266041092640430
:1010600080916504882319F08AE992E029C084E41C
:1010700091E06FC08091540490915504892B09F040
:101080006FC01092660410926404809165048823F6
:1010900019F08CE393E014C086EA91E05AC0809185
:1010A000540490915504892B09F05AC0109266049B
:1010B0001092640480916504882339F087E794E0F6
:1010C000909304018093030148C082EE91E041C0F7
:1010D0008091540490915504892B09F041C01092DD
:1010E0006604109264048CEF91E033C08091540444
:1010F00090915504892BA1F5109266041092640416
:1011000086E092E026C08091540490915504892B8A
:1011100039F5109266041092640484E192E019C0DB
:101120008091540490915504892BD1F41092660457
:10113000109264048EE292E00CC08091540490916D
:101140005504892B69F410926604109264048AE4B1
:1011500092E09093020180930101CF910C94D4020C
:10116000CF9108952C988FE99FE00197F1F700C087
:1011700000002C9A8FE99FE00197F1F700C0000072
:1011800080E40E94680081EA0E94680088EC0E9466
:10119000680081E80E94680080E80E9468000E9460
:1011A000D40210926A0410926904809169049091AB
:1011B0006A048830910598F40E94AC0080E00E9497
:1011C000960060E080E80E94950280916904909109
:1011D0006A04019690936A0480936904E6CF80EBD9
:1011E0000E94680086E70E94960081E00E945102FA
:1011F00087EB0E94680081E00E94960082E00E94D6
:10120000510287EB0E94680086E70E94960083E007
:101210000E9451020E94540487EB0E94680089E4F6
:101220000E94960060EE83E00E9495028FEA0C9483
:10123000680094EA9093BC009091BC0097FFFCCFAB
:101240009091B900987F983021F084EA8093BC0097
:1012500014C09AE69093BB0094E89093BC009091E0
:10126000BC0097FFFCCF8093BB0084E88093BC0058
:101270008091BC0087FFFCCFE8CF8091BC0087FF46
:10128000FCCF8091B900887F803151F084E9809350
:10129000BC008FE891E00197F1F700C000000895CD
:1012A0008BE68093BB0084E88093BC008091BC00F7
:1012B00087FFFCCF84EC8093BC008091BC0087FF4B
:1012C000FCCF8091BB0080935A0484EC8093BC00D7
:1012D0008091BC0087FFFCCF8091BB0080935804B5
:1012E00084E88093BC008091BC0087FFFCCFCECF08
:1012F0001F920F920FB60F9211242F933F934F938B
:101300005F936F937F938F939F93AF93BF93CF938D
:10131000DF93EF93FF9380915E0490915F040196B9
:1013200090935F0480935E046AE070E00E94370F40
:10133000892B09F0A7C080917A00806480937A009D
:1013400080917A0086FDFCCF209178003091790061
:1013500080915C0490915D04820F931F90935D04D3
:1013600080935C0420915E0430915F042436310543
:1013700009F088C06AE070E00E94370FEB017093BB
:101380005D0460935C04809161049091620468172D
:10139000790709F467C080EB0E94680087E7C23ACA
:1013A000D34068F00E9496006CEF81E00E949502A5
:1013B00081EA93E090935D0480935C0406C00E94F0
:1013C00096006CEC81E00E94950280915C04909103
:1013D0005D04883423E0920718F41092000103C0E2
:1013E0008135934030F480E593E090935D048093E1
:1013F0005C0488E70E94960064E887E00E949502FA
:1014000080915C0490915D04865493406BE070E0A1
:101410000E94370F8FE7861B0E94960010926A0485
:1014200010926904CBE0D0E080915C0490915D045F
:1014300086549340BE010E94370F809169049091B9
:101440006A048617970770F46CEF81E00E9495029A
:101450008091690490916A04019690936A04809344
:101460006904E2CF10925F0410925E0480915C04E4
:1014700090915D04909362048093610410925D04E6
:1014800010925C0480915E0490915F046EE170E0C4
:101490000E94370F0F9768F480915B04882349F00E
:1014A00087EB0E94680086E70E94960084E00E9415
:1014B000510280915E0490915F046EE170E00E94A1
:1014C000370F0F9770F080915B04882351F087EB02
:1014D0000E94680086E70E94960060E08AE00E9411
:1014E0009502FF91EF91DF91CF91BF91AF919F91C5
:1014F0008F917F916F915F914F913F912F910F90BD
:101500000FBE0F901F9018951F920F920FB60F925B
:1015100011242F933F934F935F936F937F938F93F8
:101520009F93AF93BF93CF93EF93FF938091650405
:10153000882321F084E20E94190920C082E10E94E0
:10154000190980915A048370833071F48091650485
:1015500081110AC080EB0E94680081E00E94960021
:1015600080E00E9451020AC080EB0E94680081E086
:101570000E94960060E08AE00E94950280916504D6
:10158000882321F080915A048F7108C080915804FB
:1015900090E063E0959587956A95E1F7809359040B
:1015A00080915904893118F088E180935904909111
:1015B000600480915904981709F496C081E090E086
:1015C00090936A04809369048091590490E09C018F
:1015D0002150310937FF02C02D5F3F4F35952795C8
:1015E0003595279531952195310980916904909120
:1015F0006A04A9014A5F5F4F8417950778F40E9437
:10160000AC0084E00E94960060E084E00E949502B5
:101610008091690490916A040196D2CF295F3F4F6F
:1016200030936A04209369048091690490916A045C
:101630008730910598F40E94AC0084E00E949600E7
:101640006FEF84E00E9495028091690490916A0492
:10165000019690936A0480936904E6CFC09159047F
:101660002C2F30E0C901019797FD0396959587953A
:10167000959587959195819591098A5F0E94AC0017
:1016800084E00E949600C11104C086EB0E946800AD
:1016900017C0C370D1F46FEF84E00E9495022091CF
:1016A000590430E0C901019797FD039695958795F8
:1016B000959587959195819591098B5F0E94AC00D6
:1016C00084E00E94960060E00CC084E090E08C1BF7
:1016D0009109880F991F6FEF70E001C0660F8A951E
:1016E000EAF784E00E949502809159048093600497
:1016F000FF91EF91CF91BF91AF919F918F917F918A
:101700006F915F914F913F912F910F900FBE0F906E
:101710001F9018951F920F920FB60F9211242F93BE
:101720003F934F935F936F937F938F939F93AF9369
:10173000BF93EF93FF93109257041092560429B170
:1017400030E020953095809156049091570422FF07
:101750000CC0019690935704809356048FE891E053
:101760000197F1F700C00000EACF81559109439736
:1017700028F08091000181113CC056C0109257049E
:101780001092560480915604909157044A9B65C06C
:101790008733910508F061C00196909357048093B8
:1017A00056048FE891E00197F1F700C00000EACFFE
:1017B000C397C197C8F510925704109256048091B0
:1017C0005604909157044A99EEC040970A9758F4EE
:1017D0008091540490915504019690935504809300
:1017E00054040E94570589B190E08095909582FD40
:1017F000FACF10925704109256044A9BBAC08091B7
:101800005604909157048C3424E0920708F0B1C03C
:10181000019690935704809356048FE891E00197C6
:10182000F1F700C00000E9CF10924F0410924E046F
:101830001092680410926704FF91EF91BF91AF91ED
:101840009F918F917F916F915F914F913F912F91D8
:101850000F900FBE0F901F901895899708F489CFAD
:101860001092550410925404109253041092520492
:1018700041E050E080915204909153048097F8F435
:1018800089B190E08095909582FDFACF109257042F
:101890001092560480915604909157044A9B39C087
:1018A00084319105B0F501969093570480935604C6
:1018B0008FE891E00197F1F700C00000EBCF809135
:1018C0004E0490914F048F3F910509F052CF0E9432
:1018D000570510925704109256044A9B13C08091EA
:1018E0005604909157048A30910560F401969093C4
:1018F0005704809356048FE891E00197F1F700C0F8
:101900000000EBCF89B190E08095909582FDFACFF1
:1019100030CF0D9728F0509351044093500404C0E9
:101920001092510410925004209167043091680481
:10193000220F331F8091500490915104282B392B92
:10194000309368042093670480915204909153046B
:101950008F30910541F430934F0420934E04109240
:101960006804109267040196909353048093520484
:1019700081CF109257041092560429B130E020957F
:101980003095809156049091570422FF11CF019613
:1019900090935704809356048FE891E00197F1F7F4
:1019A00000C00000EACF8F31910508F00ECF0196FC
:1019B00090935704809356048FE891E00197F1F7D4
:1019C00000C00000FCCE8EE584B986E585B91AB862
:1019D0001BB887E08093B8001092B9001092800085
:1019E0008CE08093810082E080936F0020E137E2F9
:1019F000309389002093880084BD95E095BD809345
:101A00006E008EEF87BD10927C0087E880937A008D
:101A100093BF81E0809369008DBB2FEF39E688E1A9
:101A2000215030408040E1F700C000000E943602A3
:101A30002B9A9FEF21EE34E0915020403040E1F7A7
:101A400000C0000010926A0410926904C7E5D8EA49
:101A50008091690490916A04809780F4D09368041F
:101A6000C09367040E9457058091690490916A04AD
:101A7000019690936A0480936904EACF4FE168E885
:101A80008FE00E9400020E94B2080E94D4021092CD
:101A90006A0410926904CFE6D0E9809169049091BC
:101AA0006A04059780F4D0936804C09367040E9489
:101AB00057058091690490916A04019690936A0495
:101AC00080936904EACF7894C6E0D7E2E3E1EE2E92
:101AD000E2E0FE2EF0EFCF2ED12CA2E4AA2EA6E05B
:101AE000BA2E65E0662E70E8872E72E0972E04E02D
:101AF00010E080916604811105C080916404811119
:101B00007CC0ABC077247394809165048823C1F1B5
:101B100080910301909104010997833122E092079B
:101B200028F0909304018093030106C0F092040111
:101B3000E09203011092660480918100109281006E
:101B400015BC1DBA0E94D402809181008C608093E4
:101B5000810065BC7DBA3FEF89EC98E03150804050
:101B60009040E1F700C0000080916604882329F2CC
:101B700080910301909104018331924029F6BDCFF9
:101B800080910101909102010297803F910528F018
:101B9000909302018093010106C0D0920201C0928D
:101BA000010110926604809181001092810015BCA1
:101BB0001DBA0E94D402809181008C6080938100C4
:101BC00065BC7DBAD0938500C09384003FEF82E569
:101BD00097E0315080409040E1F700C000008091D4
:101BE0006604882309F489CF809101019091020154
:101BF000803F910509F088CF80CF7724739480913E
:101C00006504882309F43EC080910301909104018A
:101C10000996833426E0920728F590930401809377
:101C20000301809181001092810015BC1DBA0E94B1
:101C3000D402809181008C608093810065BC7DBA64
:101C40003FEF89EC98E0315080409040E1F700C0D0
:101C500000008091640481110CC080910001811109
:101C60004FC08AC0B0920401A09203011092640494
:101C7000D8CF80910301909104018234964009F0FD
:101C8000BECFEBCF80910101909102010296813885
:101C900032E0930728F4909302018093010106C07B
:101CA000909202018092010110926404809181005F
:101CB0001092810015BC1DBA0E94D402809181004F
:101CC0008C608093810065BC7DBAD0938500C09301
:101CD00084008FEF92E527E0815090402040E1F7AB
:101CE00000C0000080916404882309F4B6CF80917D
:101CF0000101909102018038924009F080CFADCF70
:101D0000809164008823C1F180918100109281004C
:101D100015BC1DBA85B1866585B99FEF21EE34E00B
:101D2000915020403040E1F700C000000E94B2080E
:101D300070906304711046C03FEF89E698E131501E
:101D400080409040E1F700C000000E9436024FE161
:101D500068E88FE00E9400020E94D4022B9A8091D2
:101D600081008C608093810065BC81E08DBB109206
:101D7000640087E880937A00809100018111B9CED8
:101D80001092810015BC15B8109262041092610483
:101D90001092600410927A0081E0809364002FEF2B
:101DA00033ED80E3215030408040E1F700C0000077
:101DB0001092000183B7816083BF889583B78E7FBF
:101DC00083BF8FCE272D30E0C901019797FD039681
:101DD00095958795959587959195819591098A5FB8
:101DE0000E94AC0089E70E949600872D837011F451
:101DF0006FEF0CC09801281B3109C901880F991F8A
:101E00006FEF70E001C0660F8A95EAF784E00E94E8
:101E1000950210926A041092690436E0732E409184
:101E2000690450916A042091630430E0C90101976C
:101E300097FD03969595879595958795481759072A
:101E400008F07ACF872D841B0E94AC0089E70E949E
:101E500096006FEF84E00E94950280916904909152
:101E60006A04019690936A0480936904D8CFAA1BF0
:101E7000BB1B51E107C0AA1FBB1FA617B70710F075
:101E8000A61BB70B881F991F5A95A9F780959095A7
:0A1E9000BC01CD010895F894FFCFC6
:101E9A0001FA007704B0A8A868000808F8080878CA
:101EAA00CC84848484848484FCB0A8A86800B0A804
:101EBA00A868001860806018E0A0E000F800F83018
:101ECA00C030F800E080E0FC186018FC00FC20201C
:101EDA00FC00C8A898FC20508800FC2020FC00C800
:101EEA00A89800FFFF0C0C0C0C000000FFFF0F3C31
:101EFA00783C0FFFFF00E0FC3F33333FFCE000007B
:101F0A00FFFF0F3C783C0FFFFFFCFEFE07030303B5
:101F1A0007FEFEFC3F7F7FE0C0C0C0E07F7F3F003E
:101F2A000008080CFEFFFF0000000000000000FF90
:101F3A00FFFF0000001C1E1E07030383C7FEFE7C72
:101F4A00E0F0F8FCDECFC7C3C1C0C00C0E060383A5
:101F5A008383C7FE7E3C307060C0C1C1C1E37F7F0E
:101F6A003E000000C0F0781EFFFF0000181E1F1B75
:101F7A00181818FFFF1818FFFFFFC3C3C3C3C3C352
:101F8A008303317161C0C0C0C0E17F7F3FFCFEFEA8
:101F9A0087C3C3C3C3C686003F7F7FE1C0C0C0E119
:101FAA007F7F3F03030303030383E3FB3F0F000029
:101FBA0000E0F83E0F030000003C7EFEC7838383E7
:101FCA00C7FE7E3C3E7F7FE3C1C1C1E37F7F3E788F
:101FDA00FEFE8703030387FEFEF8006161C3C3C3E5
:061FEA00C3E17F7F3F0010
:00000001FF
